:100000000A128A11ED2FFF1B0D2883137F18831707
:100010000008840A0319FF0A080000308A00040857
:10002000840A82070034013400340A340034643412
:100030000034E834033410342734463461347534E2
:100040006C3474343A342534733420345434693481
:100050006D3465343A3425343034323475343A34BE
:1000600025343034323475343A3425343034323433
:1000700075340D340A3400345334743461347434B8
:10008000753473343A344E34413443344B34203471
:100090002034203420342034003453347434613418
:1000A0007434753473343A3455344E344B344E34DE
:1000B0004F3457344E3420342034003453347434A5
:1000C00061347434753473343A34543449344D34AF
:1000D00045344F34553454342034203400345334B0
:1000E000743461347434753473343A34533444346E
:1000F0004134203453345434553443344B34003475
:100100005334743461347434753473343A3453343E
:1001100043344C34203453345434553443344B3406
:1001200000345334743461347434753473343A3471
:10013000533459345334543445344D3420344F34CB
:100140004B34003443346C34653461347234693474
:100150006E34673420344C346F3467342E342E348C
:100160002E34003445344534503452344F344D34F9
:10017000203443344C3445344134523445344434CF
:10018000003455344E344B344E344F3457344E349F
:100190000034543449344D3445344F345534543498
:1001A000003428346E3475346C346C3429340034A3
:1001B00057344434203452345334543400344E349D
:1001C000413443344B3400340134F401F501701CE4
:1001D000EA28EB28F1287208F4070318F50A7308D7
:1001E000F50701300310F20DF30DFF3E031DF22859
:1001F00001300310F10CF00CFF3E031DF9287008CC
:100200007104031D04290529E7287508F100740805
:10021000F000080083120313A2006308A100620823
:10022000A0000310A00DA10D0310A00DA10D20082A
:10023000A3002108A4002408F6002308F5002208E2
:10024000F7000A128A1597250A128A117508760492
:10025000031D2B292C292F29FA01FB01CA290D3056
:1002600083120313A100FB30A000A00B3529A10BC2
:100270003529831203132308013EF50024080318CF
:10028000013E003EF6007A08F7000A128A1597250B
:100290000A128A1175087604031D4F295029512925
:1002A0002C290D3083120313A100FB30A000A00BFA
:1002B0005729A10B5729831203132308023EF50087
:1002C00024080318013E003EF6007B08F7000A12DE
:1002D0008A1597250A128A1175087604031D71295B
:1002E000722973292C290D3083120313A100FB30CE
:1002F000A000A00B7929A10B7929831203132308ED
:10030000033EF50024080318013E003EF6007C0879
:10031000F7000A128A1597250A128A1175087604C1
:10032000031D9329942995292C290D308312031339
:10033000A100FB30A000A00B9B29A10B9B29013041
:1003400083120313E2070318E30A0030E3070130C6
:100350006302003003196202031CAF29B029B229DD
:10036000E201E30101306102003003196002031869
:10037000BA29BB29C1290130E0070318E10A00307E
:10038000E1070A128A157E220A128A110130FA0048
:100390000030FB00080083120313A0000A128A1524
:1003A000AF220A128A1172087304031DD829D929B1
:1003B000DC29F901FA01A62AD0300A128A1528226E
:1003C0000A128A1172087304031DE729E829EE292D
:1003D0000A128A15E1220A128A11D92900300A125A
:1003E0008A1553220A128A1172087304031DF9290F
:1003F000FA29FB29E8290A128A1513230A128A11FD
:1004000072087304031D052A062A072AE829D13039
:100410000A128A1528220A128A1172087304031D0F
:10042000122A132A142AE82900300A128A155B2698
:100430000A128A11730883120313A2007208A10022
:10044000A21F232A242A252AE8292108A3007A08A2
:1004500084000F302305FB000A30F0002308FC0065
:1004600004300310FC0CFF3E031D312A7C080A12E5
:100470008A150F210A128A117B078313800000302E
:100480000A128A155B260A128A1173088312031353
:10049000A2007208A100A21F4E2A4F2A502AE82962
:1004A0002108A300790884000F302305FB000A30DF
:1004B000F0002308FC0004300310FC0CFF3E031D79
:1004C0005C2A7C080A128A150F210A128A117B07FE
:1004D0008313800001300A128A155B260A128A11E2
:1004E000730883120313A2007208A100A21F792AC5
:1004F0007A2A7B2AE8292108A300200884000F30EB
:100500002305FB000A30F0002308FC000430031030
:10051000FC0CFF3E031D872A7C0803390A128A154A
:100520000F210A128A117B07831380000A128A1591
:10053000E1220A128A1172087304031DA02AA12A5B
:10054000A22AD9290130F9000030FA0008008312EC
:100550000313AB000A128A15AF220A128A1172081D
:100560007304031DB42AB52AC02A83120313DC01C5
:10057000DD010130DE000030DF00F901FA01ED2B72
:1005800090300A128A1528220A128A1172087304FE
:10059000031DCB2ACC2AE62A031083160313111B52
:1005A000031400300318013083120313A000A101CB
:1005B0002008DC002108DD000230DE000030DF0012
:1005C0000A128A15E1220A128A11BD2A00300A1283
:1005D0008A1553220A128A1172087304031DF12A24
:1005E000F22A072B031083160313111B0314003088
:1005F0000318013083120313A000A1012008DC00BE
:100600002108DD000330DE000030DF00E02A0A129E
:100610008A1513230A128A1172087304031D112B01
:10062000122B1B2B83120313DC01DD010430DE00CF
:100630000030DF00E02A91300A128A1528220A12BF
:100640008A1172087304031D262B272B3C2B0310E1
:1006500083160313111B0314003003180130831297
:100660000313A000A1012008DC002108DD000530F3
:10067000DE000030DF00E02A00300A128A155B2617
:100680000A128A11730883120313AA007208A900C0
:10069000AA1F4B2B4C2B532BDC01DD010630DE0057
:1006A0000030DF00E02A2908A80001300A128A156C
:1006B0005B260A128A11730883120313AA007208B8
:1006C000A900AA1F642B652B6C2BDC01DD01073010
:1006D000DE000030DF00E02A2908A7000A128A1590
:1006E000E1220A128A1172087304031D782B792BF8
:1006F000822B83120313DC01DD010830DE000030A1
:10070000DF00BD2A831203132808A000073003105E
:10071000A00CFF3E031D872B20080139A100A20178
:100720002108E8002208E90028087F39A8002708E6
:10073000A00007300310A00CFF3E031D9A2B2008D9
:10074000A100A2012808A300A4010310A30DA40D79
:1007500021082304A50022082404A6002B088400F5
:10076000250883138000840A260880000230F000E8
:100770000030F1002B0884000008F200840A000811
:10078000F3000A128A15C1260A128A118312031372
:100790002B088400700883138000840A710880008D
:1007A000680869040319D52BD62BE92B2B08840084
:1007B0000008A000840A0008A100A009A109A00A5D
:1007C0000319A10A2B08840020088000840A21084C
:1007D00080000130F9000030FA0008008312031392
:1007E0008501FF30831603138500831203138701ED
:1007F0009830831603138700831203138601033096
:1008000083160313860083120313880183160313D0
:100810008801831203138901831603138901831648
:100820000317890188017030831603138F040F1496
:10083000283083120313940080308316031394002E
:1008400091018312031307170A128A1585210A12D0
:100850008A110030F400F5003830F6000A128A15CB
:10086000D7200A128A110030F400F5000C30F6008F
:100870000A128A15D7200A128A110A128A15FB2039
:100880000A128A110A128A15F8250A128A110A1206
:100890008A1528270A128A11831603130E1A512C5F
:1008A000522C7E2C5530F9005630FA0054300A1282
:1008B0008A11CB210A128A1179087A040319612C52
:1008C000622C7E2C831203135408FA005508FB0097
:1008D0005608FC0005300A128A110A210A128A11F0
:1008E000831203135408B9005508BA005608BB0018
:1008F00005300A128A1593270A128A116400003003
:100900008312031386180130D0006E03031D892C57
:100910008A2CA32C5008031D8E2C8F2CA32C143052
:10092000F0000030F1000A128A1553210A128A11D0
:100930008312031386189D2C9E2CA32C0A128A1551
:1009400045230A128A11831203135008EE00CA01CC
:10095000CB01CE01CF015A300A128A11A7220A1206
:100960008A1179087A040319B62CB72CBE2C0130F1
:1009700083120313CA000030CB00D32C0130831242
:100980000313CE070318CF0A0030CF074F08803A71
:10099000FF0080307F02031DCF2C03304E02031C6A
:1009A000D22CD32CAB2C831203134A084B04031D07
:1009B000DA2CDB2C322D0A128A153B210A128A11FD
:1009C00083120313D3005830F9005930FA0057301E
:1009D0000A128A11CB210A128A1179087A04031D9E
:1009E000F22CF32CFB2C831203136D08D7006C0838
:1009F000D8006B08D900831203136A08031D012D68
:100A0000022D122D5708B9005808BA005908BB002A
:100A100053080A128A1593270A128A1183120313A4
:100A2000EA01EA0A5708F2005808F3005908F400EE
:100A300053080A128A15F6230A128A110A128A1515
:100A4000F8250A128A11831203135708A3005808C5
:100A5000A4005908A50053080A128A153C250A1259
:100A60008A117E2C0A128A153B240A128A116C30D4
:100A7000F9006B30FA006D300A128A11CB210A128C
:100A80008A110A128A15FB200A128A118312031393
:100A9000DB1B4B2D4C2D512D5B08D2005A08D10089
:100AA0005C2D5A09C2005B09C300C20A0319C30ABC
:100AB0004208D1004308D200DB1B5F2D602D652D5D
:100AC0002B30CC000030CD00692D2D30CC00003013
:100AD000CD004C08C4006430F0000030F100520832
:100AE000F3005108F2000A128A15C1260A128A116F
:100AF0007008303E83120313C5000A30F90000303D
:100B0000FA000A30F0000030F1005208F3005108FA
:100B1000F2000A128A15C1260A128A117108FC0015
:100B20007008FB000A128A15E1240A128A1179085A
:100B3000303E83120313C6000A30F9000030FA0079
:100B40005208FC005108FB000A128A15E1240A121F
:100B50008A117908303E83120313C7004330C8005E
:100B6000C9014430F7000030F80080300A128A15BD
:100B700088240A128A117F30F7008030F800C030D4
:100B80000A128A1588240A128A118312031306187E
:100B9000CA2DCB2DD42D1430F0000030F1000A12F4
:100BA0008A1553210A128A11E830F0000330F1004F
:100BB0000A128A1553210A128A117E2C0A128A11EE
:100BC000002883120313B5002130B000D82F253040
:100BD00038060319EC2DED2DF72D35088400380863
:100BE000831380000130A9002908B507D82FB6016A
:100BF000B701AC01002E2C150130A9002908A0076F
:100C0000200884000A128A110D200A128A11A900F4
:100C1000AA012A08003A03190E2E132E2908303A89
:100C20000319FB2D132E200884000A128A110D20AF
:100C30000A128A110A128A15E9200A128A11031C63
:100C4000222E232EEE2E83120313B601B7010A3093
:100C5000F0000030F100831203133708F300360868
:100C6000F2000A128A11E5200A128A117108831211
:100C70000313B7007008B600200884000A128A1116
:100C80000D200A128A11D03EA900FF30031800304F
:100C9000AA002908B6070318B70A2A08B7070130BF
:100CA000A9002908A007200884000A128A110D2033
:100CB0000A128A110A128A15E9200A128A110318E7
:100CC000622E632E272EEE2E300884008313000838
:100CD000B100840A00088403B2000230A900290888
:100CE000B00731083204031D762E772E7B2EBF30DD
:100CF000B1008030B200B301B401842E0130B307DB
:100D00000318B40A0030B4073308310784003208EE
:100D10000318320AFF000A128A1103200A128A11EC
:100D2000003A031D942E952E7E2E37083402031DA3
:100D30009B2E3608330203189E2E9F2EA62E3308B4
:100D4000B6023408031CB703B702B22EB601B701CE
:100D5000B22E350884002030831380000130A900B2
:100D60002908B507FF30B6070318B70AFF30B707E1
:100D7000360A031DBF2E370A031DBF2EC02EA92E13
:100D8000DA2E3208FF00310884000A128A1103208B
:100D90000A128A11A90035088400290883138000EB
:100DA0000130B1070318B20A0030B2070130A900C0
:100DB0002908B5070130B3020030031CB403B402A4
:100DC000330A031DE72E340A031DE72EE82EC12E39
:100DD000D82FC030A9002908AC040D2F0130831290
:100DE0000313A007FF30200784000A128A110D2088
:100DF0000A128A11B800A900AA012A08003A0319A8
:100E0000022FD82F2908003A0319E82F733A031943
:100E1000642E063A0319E92ED82F30088400831374
:100E20000008AD00840A0008AE000230A9002908BD
:100E3000B007B801B80A3808A9002907013E8400A4
:100E40000A128A110D200A128A11AA000A128A11A6
:100E50000D200A128A11AB002B082E02031D322F1F
:100E60002A082D020318352F362F372F412F013036
:100E7000A9002908B80705303806031D402F412F67
:100E80001B2F3708803A803C031D482F3608380254
:100E900003184B2F4C2F582F831203133808A90027
:100EA000AA012908B6022A08031CB703B7025C2F5F
:100EB00083120313B601B7012C1D5F2F602F7C2F07
:100EC000360837040319652F662F972F35088400DD
:100ED0003030831380000130A9002908B507FF30A6
:100EE000B6070318B70AFF30B70736083704031DE3
:100EF0007A2F7B2F662F972F360837040319812FFF
:100F0000822F972F35088400203083138000013012
:100F1000A9002908B507FF30B6070318B70AFF3044
:100F2000B70736083704031D962F972F822F3808EE
:100F3000AF00CF2F0A30F8000030F9002F08A900C9
:100F40002907013E84000A128A110D200A128A1113
:100F5000F0000A128A110D200A128A11F1002E08DF
:100F6000F3002D08F2000A128A15B2230A128A1120
:100F70007108FB007008FA000A128A1578230A1219
:100F80008A117808303E83120313B80035088400B4
:100F90003808831380000130A9002908B507FF3005
:100FA000A9002908AF072F0A031DD72FD82F9A2F82
:100FB0000130A007FF30200784000A128A110D209B
:100FC0000A128A11B8003808031DE72FE82FE72D11
:100FD000350884008313800108000A128A11E42076
:100FE0000A128A11EE0083135C3084006E300A12FC
:100FF0008A15B8200A128A1183010A128A11EE2B6F
:1011700064008001840A0406031900340406B928B7
:10118000F000831203130C1EC628C728C12870085C
:1011900099000800F0007008831203178D00831671
:1011A00003178C130C14831203170C08080074180F
:1011B000DA28DE28831203130914E12883120313AB
:1011C0000910760888000A128A156C210A128A15FD
:1011D0000800F100F0013A3071020318F028F128FC
:1011E000F92830307102031CF628F728F928F0019D
:1011F000F00A700C08000030F400F500F601F60A61
:101200000A128A15D7200A128A150230F00000301F
:10121000F1000A128A1553210A128A150800F300F8
:10122000F201731C1429152919297008F10071089D
:10123000F2070310F00D0310F30C7308031D2129AE
:101240002229112972080800F2003229720884004C
:1012500000080A128A15C0200A128A150130F1000E
:101260007108F2077208840083130008031D3929EE
:101270003A2926290800831203135C085D04031928
:1012800042294329452903305229871948294929E8
:101290004B2902305229071A4E294F295129013072
:1012A0005229043008005D290330F3009730F20022
:1012B000F20B5829F30B58295D290130F002003058
:1012C000031CF103F102700A031D6A29710A031D50
:1012D0006A296B29542908008312031389140130E9
:1012E000F0000030F1000A128A1553210A128A1503
:1012F0008312031389100130F0000030F1000A124C
:101300008A1553210A128A1508008316031307133E
:1013100087171812181583120313981783160313CF
:10132000981683120313181233308316031399008F
:101330008316031787118312031307170800F100A0
:10134000831603178C18A529A629A02971088312D2
:1013500003178D0070088C00831603178C130C156F
:101360008B1355308D00AA308D008C148C18B92940
:10137000BA29B6290C118B17080070308312031399
:10138000E4001730E500D329FF30E4070318E50A2D
:10139000FF30E50764086504031DCF29D029D32950
:1013A000F001F101DC298C1DD629D729C4298C1123
:1013B0000130F0000030F100080083120313941292
:1013C0000330F1009730F000F00BE429F10BE42931
:1013D000E9298312031394018316031391019401E5
:1013E000831203138C11283094008030831603136A
:1013F00094009101831203138C119416080070302D
:1014000083120313E4001730E500172AFF3083121C
:101410000313E4070318E50AFF30E50764086504D1
:10142000031D132A142A172AF001F101272A831613
:10143000031311081F39031D1E2A1F2A062A141917
:10144000222A232A062A0130F0000030F100080089
:10145000F4000A128A15FF210A128A157008710415
:10146000031D332A342A372AF201F301522A740861
:101470008312031393000A128A15BD210A128A15DA
:1014800070087104031D452A462A472A342A831608
:101490000313111F4C2A4D2A4E2A342A0130F20020
:1014A0000030F3000800F4000A128A15FF210A1226
:1014B0008A1570087104031D5E2A5F2A622AF201F0
:1014C000F3017D2A74088312031393000A128A150C
:1014D000BD210A128A1570087104031D702A712A31
:1014E000722A5F2A83160313111F772A782A792A12
:1014F0005F2A0130F2000030F3000800831203136A
:101500006208F00005300A128A159F210A128A1516
:10151000831203136308F00006300A128A159F2114
:101520000A128A15831203136008F00007300A12AA
:101530008A159F210A128A15831203136108F0008D
:1015400008300A128A159F210A128A15A530F00068
:1015500009300A128A159F210A128A1508000A12F8
:101560008A15FF210A128A1570087104031DB92A11
:10157000BA2ABD2AF201F301E02A831603131114DB
:10158000703083120313E4001730E500D62AFF30D1
:1015900083120313E4070318E50AFF30E507640824
:1015A0006504031DD42AD52AD62ABA2A8316031322
:1015B0001118DB2ADC2AC72A0130F2000030F300C0
:1015C00008000A128A15FF210A128A157008710490
:1015D000031DEB2AEC2AEF2AF201F301122B8316EA
:1015E00003131115703083120313E4001730E50064
:1015F000082BFF3083120313E4070318E50AFF30BA
:10160000E50764086504031D062B072B082BEC2A4D
:101610008316031311190D2B0E2BF92A0130F2003A
:101620000030F30008000A128A15FF210A128A15F9
:1016300070087104031D1D2B1E2B212BF201F301D9
:10164000442B831603139114703083120313E400A8
:101650001730E5003A2BFF3083120313E407031819
:10166000E50AFF30E50764086504031D382B392BB4
:101670003A2B1E2B8316031391183F2B402B2B2B39
:101680000130F2000030F300080083120313E2017E
:10169000E301E001E1010A128A157E220A128A158D
:1016A0000A128A15FB200A128A159030F700803042
:1016B000F80080300A128A1588240A128A15A03090
:1016C000F7008030F800C0300A128A1588240A1208
:1016D0008A15D030F0000730F1000A128A15532124
:1016E0000A128A150A128A15FB200A128A150800A6
:1016F0007808790403197D2B7E2BAD2BFD01FD0AA3
:101700008C2B01300310F80DF90DFF3E031D822BC9
:101710000130FC007C08FD07F91F8F2B902B812BDB
:1017200079087B02031D962B78087A02031C992BFB
:101730009A2BA02B7808FA027908031CFB03FB0202
:1017400001300310F90CF80CFF3E031DA12B0130F2
:10175000FD02031DAC2BAD2B902B7B08F9007A0802
:10176000F8000800F501F601700871040319B92B9F
:10177000BA2BF12BF701F70AC82B01300310F00D3B
:10178000F10DFF3E031DBE2B0130F4007408F70776
:10179000F11FCB2BCC2BBD2B01300310F50DF60D1B
:1017A000FF3E031DCD2B71087302031DD92B70085A
:1017B0007202031CDC2BDD2BE42B7008F202710893
:1017C000031CF303F302751401300310F10CF00C49
:1017D000FF3E031DE52B0130F702031DF02BF12B1B
:1017E000CC2B7608F1007508F0000800F7000430F3
:1017F0000A128A15CA200A128A15003A0319012C06
:10180000022C032C3A2C64007708F00000300A12F6
:101810008A159F210A128A1564007208F0000130AF
:101820000A128A159F210A128A1564007308F000B3
:1018300002300A128A159F210A128A156400740860
:10184000F00003300A128A159F210A128A156400DB
:101850001A30F600F830F500F50B2C2CF60B2C2C7A
:1018600000006400F001F00A04300A128A159F217A
:101870000A128A15080004300A128A15CA200A12B0
:101880008A15013A0319452C462C472C872C003029
:101890000A128A15CA200A128A1583120313A50098
:1018A00001300A128A15CA200A128A1583120313FC
:1018B000A60002300A128A15CA200A128A1583125B
:1018C0000313A70003300A128A15CA200A128A15C8
:1018D00083120313A8002608FA002708FB00280833
:1018E000FC0025080A128A110A210A128A157A08B0
:1018F0007B0403197C2C7D2C872CF00104300A1208
:101900008A159F210A128A1583120313EA0108001F
:1019100083120313A000A101A201C42C0030F40023
:10192000F50021082007F6000A128A15D7200A12AE
:101930008A150130F4000030F500831203132108EA
:101940007707FA007808F9000318F90AA11FA92CF3
:10195000F9037908FB007B0883120313FF007A0860
:1019600084000A128A1103200A128A15F6000A124C
:101970008A15D7200A128A15013083120313A10792
:101980000318A20A0030A20721087707FA00780896
:10199000F9000318F90AA11FCE2CF9037908FB00FE
:1019A0007B0883120313FF007A0884000A128A114D
:1019B00003200A128A15003A031DDF2CE02C8E2C1E
:1019C000080083120313A101FC1FE72CE82CEF2C65
:1019D000FB09FC09FB0A0319FC0AA101A10AFA1F71
:1019E000F22CF32CF82CF909FA09F90A0319FA0A6E
:1019F00079087A040319FD2CFE2C2D2DA001A00AD4
:101A00000C2D01300310F90DFA0DFF3E031D022DC0
:101A10000130FD007D08A007FA1F0F2D102D012DAC
:101A20007A087C02031D162D79087B02031C192DF0
:101A30001A2D202D7908FB027A08031CFC03FC02F6
:101A400001300310FA0CF90CFF3E031D212D01306B
:101A5000A002031D2C2D2D2D102D21080319312D31
:101A6000322D372DFB09FC09FB0A0319FC0A7C08FF
:101A7000FA007B08F900080083120313A600772DF3
:101A80005D30F7008030F800C0300A128A158824D3
:101A90000A128A158D2D6E30F7008030F800C030A4
:101AA0000A128A1588240A128A158D2D2A30F70009
:101AB0008030F800C0300A128A1588240A128A156C
:101AC0008D2D4C30F7008030F800C0300A128A1596
:101AD00088240A128A158D2D3B30F7008030F800DB
:101AE000C0300A128A1588240A128A158D2D2608FC
:101AF000FC00FD017D08003A03197F2D6C2D7C0848
:101B0000013A0319402D033A03194B2D013A0319E9
:101B1000562D073A0319612D6C2DD030F000073097
:101B2000F1000A128A1553210A128A1508000A12B6
:101B30008A15AF220A128A1572087304031DA12D9B
:101B4000A22DA52DF501F601F72DA0300A128A1558
:101B500028220A128A1572087304031DB02DB12DB4
:101B6000B72D0A128A15E1220A128A15A22D7608CB
:101B70000A128A1553220A128A1572087304031D69
:101B8000C22DC32DC42DB12D75080A128A155322FA
:101B90000A128A1572087304031DCF2DD02DD12D82
:101BA000B12D77080A128A1553220A128A15720873
:101BB0007304031DDC2DDD2DDE2DB12D0A128A15D7
:101BC000E1220A128A1572087304031DE82DE92D1B
:101BD000EA2DA22D0D30F900FB30F800F80BEE2DA8
:101BE000F90BEE2DF32D0130F5000030F600080062
:101BF0008312031394128316031387110716F4013B
:101C0000F5018312031387152130F200F20B062E23
:101C10008312031387112130F200F20B0D2E831271
:101C20000313071E142E152E162E292E0130F4072D
:101C30000318F50A0030F5077508803AFF00803078
:101C40007F02031D252E09307402031C282E292E25
:101C5000012E8312031387152130F200F20B2E2E72
:101C60008316031307128312031307122130F200A5
:101C7000F20B382E8312031387152130F200F20B7A
:101C80003F2E8312031307162130F200F20B462E6B
:101C90000A128A15DD210A128A1583160313871585
:101CA00007160D30F300FB30F200F20B552EF30B4C
:101CB000552E5A2E0800F8000A128A15FF210A1222
:101CC0008A1570087104031D662E672E6C2EFF3076
:101CD000F200FF30F300C02E83160313911570300D
:101CE00083120313E4001730E500852EFF308312C2
:101CF0000313E4070318E50AFF30E50764086504E9
:101D0000031D832E842E852E672E83160313141C29
:101D10008A2E8B2E762E831203131308F400F501FE
:101D20007408F6007508F7007808031D982E9C2E9D
:101D30008316031391169F2E831603139112111607
:101D4000703083120313E4001730E500B62EFF3025
:101D500083120313E4070318E50AFF30E50764085C
:101D60006504031DB42EB52EB62EBC2E83160313A8
:101D7000111ABB2EBC2EA72E7708F3007608F200AE
:101D80000800F601F11FC52EC62ECD2EF009F1096F
:101D9000F00A0319F10AF601F60AF31FD02ED12E2C
:101DA000DA2EF209F309F20A0319F30A0130F400FA
:101DB0007408F606F701F801700871040319E12EA2
:101DC000E22E192FF501F50AF02E01300310F00D67
:101DD000F10DFF3E031DE62E0130F4007408F507F7
:101DE000F11FF32EF42EE52E01300310F70DF80D40
:101DF000FF3E031DF52E71087302031D012F7008AD
:101E00007202031C042F052F0C2F7008F2027108B8
:101E1000031CF303F302771401300310F10CF00CF0
:101E2000FF3E031D0D2F0130F502031D182F192F42
:101E3000F42E760803191D2F1E2F232FF709F809FA
:101E4000F70A0319F80A7808F1007708F00008008B
:101E500009300A128A15CA200A128A15A53A0319EE
:101E6000322F332F462F83120313E201E301E001E7
:101E7000E1010A128A157E220A128A15F001043045
:101E80000A128A159F210A128A15922F05300A120A
:101E90008A15CA200A128A15F200F30106300A12C6
:101EA0008A15CA200A128A15F400F5017408F50093
:101EB000F4017208740483120313E20073087504BA
:101EC000E30007300A128A15CA200A128A15F200A6
:101ED000F30108300A128A15CA200A128A15F40082
:101EE000F5017408F500F4017208740483120313F9
:101EF000E00073087504E10001306302003003194B
:101F00006202031C842F852F872FE201E301013039
:101F10006102003003196002031C8F2F902F922F53
:101F2000E001E101080083160313E000B52F6430DF
:101F300083160313E100D02F753083160313E100DD
:101F4000D02FCD3083160313E100D02FB730831686
:101F50000313E100D02FC63083160313E100D02F06
:101F6000AF3083160313E100D02F600883120313F0
:101F7000BC00BD013D08003A0319BF2FB02F3C083B
:101F8000013A0319972F033A03199C2F013A0319B9
:101F9000A12F073A0319A62F013A0319AB2FB02F2F
:101FA0000B3083120313A0008316031361088312FE
:101FB0000313A1000030031D8030A2003908BC00CB
:101FC000BD013C08A3003D08A4003A08BE00BF01C3
:101FD0003E08A5003F08A6003B08C000C10140081C
:101FE000A7004108A800A0300A128A11E1250A12B0
:101FF0008A15A0300A128A1524210A128A150800AF
:08400000FF3FFF3FFF3FFF3FC0
:04400E00EC2CFF3F58
:00000001FF
